:100000000C942A000C94E7070C941A080C944D08E1
:100010000C9447000C9447000C9447000C94470044
:100020000C9447000C9447000C9447000C94470034
:100030000C9447000C9447000C9447000C94470024
:100040000C9447000C9447000C9447000C94470014
:100050000C94470011241FBECFE5D8E0DEBFCDBF12
:1000600010E0A8E6B0E001C01D92A037B107E1F7AB
:1000700010E0A0E6B0E0E4EEF2E202C005900D92DE
:10008000A836B107D9F70E946C0C0C9470110C942F
:100090000000EF92FF920F931F937B018C0120E0F1
:1000A00030E040E05FE40E94490388238CF0C801FF
:1000B000B70120E030E040E05FE40E94C1010E940F
:1000C000A9039B01AC01205030404040504806C07D
:1000D000C801B7010E94A9039B01AC01B901CA0183
:1000E0001F910F91FF90EF900895A0E0B0E0EBE733
:1000F000F0E00C943911DC012B01FA019C91923053
:1001000008F439C1EB018881823008F433C194309E
:1001100069F4843009F02FC111969C91119789815F
:10012000981709F428C1A0E6B0E025C1843009F48D
:1001300021C18230A9F4923009F01DC19A01AD01AC
:1001400088E0EA010990AE01E90109929E0181501F
:10015000C1F7E201898111969C918923818308C1AD
:10016000923009F407C112962D903C901397EB0141
:100170008A819B811496AD90BD90CD90DC901797AD
:10018000EC80FD800E811F819101281B390BB90184
:1001900037FF04C066277727621B730B6032710537
:1001A0000CF061C0121613066CF537014801062EDB
:1001B00004C096948794779467940A94D2F721E0C8
:1001C00030E040E050E004C0220F331F441F551FB1
:1001D0006A95D2F721503040404050402E213F21B7
:1001E00040235123211531054105510521F021E01E
:1001F00030E040E050E079018A01E628F72808293C
:1002000019293CC0232BD1F1260E371E350146019A
:10021000062E04C096948794779467940A94D2F734
:1002200021E030E040E050E004C0220F331F441FC3
:10023000551F6A95D2F721503040404050402A2146
:100240003B214C215D21211531054105510521F04E
:1002500021E030E040E050E059016A01A628B728CB
:10026000C828D9280BC0821593052CF01C01AA249C
:10027000BB24650103C0EE24FF24870111969C91E5
:10028000D20111968C91981709F445C0992339F041
:10029000A80197012A193B094C095D0906C0A6016E
:1002A00095012E193F09400B510B57FD08C01182D3
:1002B0003382228224833583468357831DC081E0A5
:1002C00081833382228288279927DC01821B930B4A
:1002D000A40BB50B84839583A683B7830DC0220F2F
:1002E000331F441F551F24833583468357838281E0
:1002F000938101979383828324813581468157813D
:10030000DA01C9010197A109B1098F5F9F4FAF4F72
:10031000BF4328F30BC0918333822282EA0CFB1C7B
:100320000C1D1D1DE482F5820683178383E0808304
:10033000248135814681578157FF1AC0C901AA27F8
:1003400097FDA095BA2F81709070A070B0705695EF
:10035000479537952795822B932BA42BB52B848318
:100360009583A683B7838281938101969383828349
:10037000DF0101C0D201CD01CDB7DEB7E2E10C94BF
:100380005511A0E2B0E0E7ECF1E00C94451169836F
:100390007A838B839C832D833E834F835887E9E048
:1003A000EE2EF12CEC0EFD1ECE010196B7010E943F
:1003B000D2048E010F5E1F4FCE010596B8010E9438
:1003C000D2048A8991E089278A8BC701B801AE01DE
:1003D000475E5F4F0E9475000E94FD03A096E6E015
:1003E0000C946111A0E2B0E0E8EFF1E00C9445114B
:1003F00069837A838B839C832D833E834F835887C5
:10040000F9E0EF2EF12CEC0EFD1ECE010196B701A6
:100410000E94D2048E010F5E1F4FCE010596B801D7
:100420000E94D204C701B801AE01475E5F4F0E942F
:1004300075000E94FD03A096E6E00C946111A0E215
:10044000B0E0E5E2F2E00C94391169837A838B83A2
:100450009C832D833E834F835887CE010196BE0136
:10046000675F7F4F0E94D204CE010596BE016F5E8A
:100470007F4F0E94D2049985923088F0898982301A
:10048000C8F0943019F4823051F404C0843029F457
:10049000923081F480E690E0C6C0923049F420E0CA
:1004A0009A858A89981321E02A87CE010996BBC0D4
:1004B000823049F420E09A858A89981321E02A8BBA
:1004C000CE014196B0C02D843E844F8458886D88FB
:1004D0007E888F88988CEE24FF248701AA24BB2471
:1004E000650140E050E060E070E0E0E0F0E0C10174
:1004F00081709070892BE9F0E60CF71C081D191D1E
:100500009A01AB012A0D3B1D4C1D5D1D80E090E062
:10051000A0E0B0E0E614F7040805190520F481E036
:1005200090E0A0E0B0E0BA01A901480F591F6A1F8E
:100530007B1FAA0CBB1CCC1CDD1C97FE08C081E0F5
:1005400090E0A0E0B0E0A82AB92ACA2ADB2A3196B6
:10055000E032F10549F0660C771C881C991C569412
:10056000479437942794C3CFFA85EA892B893C892D
:100570008B859C85280F391F2E5F3F4F17C0CA01FE
:1005800081709070892B61F016950795F794E79428
:1005900080E090E0A0E0B0E8E82AF92A0A2B1B2BC3
:1005A00076956795579547952F5F3F4F77FDE7CF36
:1005B0000CC0440F551F661F771F17FD4160EE0CDE
:1005C000FF1C001F111F21503040403090E05907A0
:1005D00090E0690790E4790760F32B8F3C8FDB0193
:1005E000CA018F779070A070B07080349105A1051A
:1005F000B10561F447FD0AC0E114F10401051105DC
:1006000029F0405C5F4F6F4F7F4F40781A8EFE1786
:1006100011F081E08A8F4D8F5E8F6F8F78A383E01A
:10062000898FCE0149960E94FD03A096E2E10C94C9
:100630005511A8E1B0E0EFE1F3E00C9445116983B6
:100640007A838B839C832D833E834F83588789E0F5
:10065000E82EF12CEC0EFD1ECE010196B7010E9492
:10066000D2048E010F5E1F4FCE010596B8010E9485
:10067000D2048985823040F08989823028F0C70110
:10068000B8010E944A0501C08FEF6896E6E00C941D
:100690006111A8E1B0E0EFE4F3E00C944511698347
:1006A0007A838B839C832D833E834F83588789E095
:1006B000E82EF12CEC0EFD1ECE010196B7010E9432
:1006C000D2048E010F5E1F4FCE010596B8010E9425
:1006D000D2048985823040F08989823028F0C701B0
:1006E000B8010E944A0501C08FEF6896E6E00C94BD
:1006F0006111A8E1B0E0EFE7F3E00C9445116983E4
:100700007A838B839C832D833E834F83588789E034
:10071000E82EF12CEC0EFD1ECE010196B7010E94D1
:10072000D2048E010F5E1F4FCE010596B8010E94C4
:10073000D2048985823040F08989823028F0C7014F
:10074000B8010E944A0501C081E06896E6E00C9479
:100750006111ACE0B0E0EFEAF3E00C944911698379
:100760007A838B839C83CE010196BE016B5F7F4FA2
:100770000E94D2048D81823061F1823050F1843048
:1007800021F48E81882351F12EC02F81388537FDC9
:1007900020C06E812F3131051CF06623F9F023C093
:1007A0008EE190E0821B930B29853A854B855C8511
:1007B00004C056954795379527958A95D2F76623B5
:1007C000B1F050954095309521953F4F4F4F5F4F79
:1007D0000EC020E030E040E050E009C02FEF3FEFD6
:1007E0004FEF5FE704C020E030E040E050E8B9019F
:1007F000CA012C96E2E00C946511DF92EF92FF9211
:100800000F931F93FC01E480F58006811781D1804E
:100810008081823048F480E090E0A0E1B0E0E82AF6
:10082000F92A0A2B1B2BA5C0843009F49FC0823003
:1008300021F4EE24FF24870105C0E114F104010531
:10084000110519F4E0E0F0E096C0628173819FEF3A
:10085000623879070CF05BC022E83FEF261B370BAC
:100860002A3131052CF020E030E040E050E02AC091
:10087000B801A701022E04C0769567955795479554
:100880000A94D2F781E090E0A0E0B0E004C0880FC5
:10089000991FAA1FBB1F2A95D2F70197A109B10979
:1008A0008E219F21A023B1230097A105B10521F03E
:1008B00081E090E0A0E0B0E09A01AB01282B392B59
:1008C0004A2B5B2BDA01C9018F779070A070B07052
:1008D00080349105A105B10539F427FF09C0205CDA
:1008E0003F4F4F4F5F4F04C0215C3F4F4F4F5F4F13
:1008F000E0E0F0E02030A0E03A07A0E04A07A0E402
:100900005A0710F0E1E0F0E079018A0127C0603871
:10091000710564F5FB01E158FF4FD801C7018F77DE
:100920009070A070B07080349105A105B10539F4C4
:10093000E7FE0DC080E490E0A0E0B0E004C08FE3EB
:1009400090E0A0E0B0E0E80EF91E0A1F1B1F17FFA1
:1009500005C016950795F794E794319687E01695AC
:100960000795F794E7948A95D1F705C0EE24FF2404
:100970008701EFEFF0E06E2F679566276795902F60
:100980009F77D794DD24D7948E2F8695492F462BB9
:10099000582F5D29B701CA011F910F91FF90EF9069
:1009A000DF900895FC01DB01408151812281622F9B
:1009B0006F7770E0221F2227221F9381892F880FD3
:1009C000822B282F30E0991F9927991F11969C930D
:1009D000119721153105A9F54115510561057105DD
:1009E00011F482E037C082E89FEF13969C938E93B8
:1009F00012979A01AB0167E0220F331F441F551F66
:100A00006A95D1F783E08C930DC0220F331F441FEA
:100A1000551F12968D919C911397019713969C9355
:100A20008E931297203080E0380780E0480780E4FA
:100A3000580758F314962D933D934D935C93179755
:100A400008952F3F310579F4411551056105710570
:100A500019F484E08C93089564FF03C081E08C93C3
:100A600012C01C9210C02F57304013963C932E9307
:100A7000129783E08C9387E0440F551F661F771F02
:100A80008A95D1F7706414964D935D936D937C9322
:100A9000179708951F93DC01FB019C91923008F495
:100AA00047C08081823008F443C0943051F41196DD
:100AB0001C91843099F58181682F70E0611B710968
:100AC0003FC0843021F0923031F48230B9F181811D
:100AD000882389F12DC011961C9111978230F1F075
:100AE00081811817D9F412962D913C911397828128
:100AF00093818217930794F028173907BCF0149656
:100B00008D919D910D90BC91A02D248135814681C0
:100B10005781281739074A075B0718F4112341F05A
:100B20000AC082179307A407B50740F4112319F0F0
:100B300061E070E005C06FEF7FEF02C060E070E041
:100B4000CB011F910895DF93CF93CDB7DEB7AFE50B
:100B5000B0E0EFE5F0E0808180688C93CF91DF9189
:100B60000895DF93CF93CDB7DEB7AFE5B0E0EFE503
:100B7000F0E080818F778C93CF91DF910895DF93A0
:100B8000CF93CDB7DEB7A5E5B0E0E5E5F0E0808135
:100B900081608C93A5E5B0E0E5E5F0E080818D7F94
:100BA0008C93ABE5B0E0EBE5F0E0808180648C9362
:100BB000CF91DF910895DF93CF93CDB7DEB7A5E551
:100BC000B0E0E5E5F0E0808184608C93A5E5B0E0DD
:100BD000E5E5F0E08081877F8C93ABE5B0E0EBE565
:100BE000F0E0808180688C93CF91DF910895DF934E
:100BF000CF93CDB7DEB7A4E5B0E0E4E5F0E08081C7
:100C000080648C93ABE5B0E0EBE5F0E0808180623E
:100C10008C93CF91DF910895DF93CF9300D000D0D4
:100C2000CDB7DEB78A8319828A81282F30E03C83D2
:100C30002B838B819C818230910529F12B813C8112
:100C40002330310534F48B819C818130910561F032
:100C500047C02B813C812330310521F18B819C8160
:100C60008430910571F13CC0A5E5B0E0E5E5F0E028
:100C700080818E7F8C93A5E5B0E0E5E5F0E0808192
:100C80008D7F8C932FC0A5E5B0E0E5E5F0E0808195
:100C900081608C93A5E5B0E0E5E5F0E080818D7F93
:100CA0008C9320C0A5E5B0E0E5E5F0E080818E7F83
:100CB0008C93A5E5B0E0E5E5F0E0808182608C935F
:100CC00011C0A5E5B0E0E5E5F0E0808181608C939E
:100CD000A5E5B0E0E5E5F0E0808182608C9302C09C
:100CE00081E0898389810F900F900F900F90CF91B1
:100CF000DF910895DF93CF9300D000D0CDB7DEB75A
:100D00008A8319828A81282F30E03C832B838B8150
:100D10009C818230910529F12B813C812330310562
:100D200034F48B819C818130910561F047C02B8127
:100D30003C812330310521F18B819C8184309105E8
:100D400071F13CC0A5E5B0E0E5E5F0E080818B7F86
:100D50008C93A5E5B0E0E5E5F0E08081877F8C939A
:100D60002FC0A5E5B0E0E5E5F0E0808184608C93DC
:100D7000A5E5B0E0E5E5F0E08081877F8C9320C0B9
:100D8000A5E5B0E0E5E5F0E080818B7F8C93A5E5FB
:100D9000B0E0E5E5F0E0808188608C9311C0A5E5C6
:100DA000B0E0E5E5F0E0808184608C93A5E5B0E0FB
:100DB000E5E5F0E0808188608C9302C081E0898362
:100DC00089810F900F900F900F90CF91DF91089530
:100DD000DF93CF9300D000D0CDB7DEB78A831982DE
:100DE0008A81282F30E03C832B838B819C81833048
:100DF000910531F02B813C812430310549F010C040
:100E0000A4E5B0E0E4E5F0E080818F7B8C930AC03C
:100E1000A4E5B0E0E4E5F0E0808180648C9302C05A
:100E200081E0898389810F900F900F900F90CF916F
:100E3000DF910895DF93CF9300D000D0CDB7DEB718
:100E40008A8319828A81282F30E03C832B838B810F
:100E50009C818130910589F02B813C8122303105C4
:100E6000A1F08B819C810097C1F4ABE5B0E0EBE58C
:100E7000F0E0808180648C9312C0ABE5B0E0EBE5DC
:100E8000F0E0808180688C930AC0ABE5B0E0EBE5D0
:100E9000F0E0808180628C9302C081E08983898147
:100EA0000F900F900F900F90CF91DF910895DF93E7
:100EB000CF9300D000D0CDB7DEB78A838A81282FA8
:100EC00030E03C832B838B819C818130910589F0BC
:100ED0002B813C8122303105A1F08B819C810097D0
:100EE000C1F4ABE5B0E0EBE5F0E080818F7B8C9363
:100EF00012C0ABE5B0E0EBE5F0E080818F778C933A
:100F00000AC0ABE5B0E0EBE5F0E080818F7D8C932B
:100F100002C081E0898389810F900F900F900F901C
:100F2000CF91DF910895DF93CF9300D00F92CDB78B
:100F3000DEB79B838A838A819B81009739F08A81FF
:100F40009B81909369008093680002C082E089834E
:100F500089810F900F900F90CF91DF910895DF93CB
:100F6000CF9300D00F92CDB7DEB79B838A838A815F
:100F70009B81009739F08A819B8190936B008093CD
:100F80006A0002C082E0898389810F900F900F90E0
:100F9000CF91DF910895DF93CF9300D00F92CDB71B
:100FA000DEB79B838A838A819B81009739F08A818F
:100FB0009B8190936D0080936C0002C082E08983D6
:100FC00089810F900F900F90CF91DF9108951F921C
:100FD0000F920FB60F9211242F933F934F935F936D
:100FE0006F937F938F939F93AF93BF93EF93FF93F1
:100FF000DF93CF93CDB7DEB7809168009091690001
:10100000009729F0E0916800F09169000995CF916F
:10101000DF91FF91EF91BF91AF919F918F917F9160
:101020006F915F914F913F912F910F900FBE0F9055
:101030001F9018951F920F920FB60F9211242F93A5
:101040003F934F935F936F937F938F939F93AF9350
:10105000BF93EF93FF93DF93CF93CDB7DEB780912C
:101060006A0090916B00009729F0E0916A00F0917E
:101070006B000995CF91DF91FF91EF91BF91AF91F7
:101080009F918F917F916F915F914F913F912F91A0
:101090000F900FBE0F901F9018951F920F920FB6D2
:1010A0000F9211242F933F934F935F936F937F93EE
:1010B0008F939F93AF93BF93EF93FF93DF93CF9360
:1010C000CDB7DEB780916C0090916D00009729F04C
:1010D000E0916C00F0916D000995CF91DF91FF9147
:1010E000EF91BF91AF919F918F917F916F915F91A0
:1010F0004F913F912F910F900FBE0F901F90189519
:10110000DF93CF93CDB7DEB728970FB6F894DEBF45
:101110000FBECDBF8A836B834C8319828B8188304D
:1011200008F0F4C08C81882309F077C08A81282FC9
:1011300030E038872F838F8198858130910559F170
:101140002F813885223031052CF48F8198850097C6
:1011500069F060C02F8138852230310589F18F8197
:1011600098858330910509F440C054C0AAE3B0E0EB
:10117000EAE3F0E08081482F8B81282F30E081E086
:1011800090E0022E02C0880F991F0A94E2F7809522
:1011900084238C93BDC0A7E3B0E0E7E3F0E0808157
:1011A000482F8B81282F30E081E090E0022E02C092
:1011B000880F991F0A94E2F7809584238C93A8C026
:1011C000A4E3B0E0E4E3F0E08081482F8B81282F96
:1011D00030E081E090E0022E02C0880F991F0A944F
:1011E000E2F7809584238C9393C0A1E3B0E0E1E320
:1011F000F0E08081482F8B81282F30E081E090E063
:10120000022E02C0880F991F0A94E2F7809584236A
:101210008C937EC081E089837BC08C81813009F012
:1012200072C08A81282F30E03E832D838D819E817C
:101230008130910549F12D813E81223031052CF418
:101240008D819E81009761F05BC02D813E812230AF
:10125000310571F18D819E8183309105E9F150C096
:10126000AAE3B0E0EAE3F0E08081482F8B81282FE9
:1012700030E081E090E0022E02C0880F991F0A94AE
:10128000E2F7842B8C9344C0A7E3B0E0E7E3F0E0FF
:101290008081482F8B81282F30E081E090E0022E62
:1012A00002C0880F991F0A94E2F7842B8C9330C0F8
:1012B000A4E3B0E0E4E3F0E08081482F8B81282FA5
:1012C00030E081E090E0022E02C0880F991F0A945E
:1012D000E2F7842B8C931CC0A1E3B0E0E1E3F0E0E3
:1012E0008081482F8B81282F30E081E090E0022E12
:1012F00002C0880F991F0A94E2F7842B8C9308C0D0
:1013000081E0898305C081E0898302C081E089830F
:10131000898128960FB6F894DEBF0FBECDBFCF915E
:10132000DF910895DF93CF9300D000D00F92CDB717
:10133000DEB78A836B8319828A81282F30E03D8350
:101340002C838C819D8181309105D1F02C813D8150
:10135000223031052CF48C819D81009761F01FC0F3
:101360002C813D812230310581F08C819D8183303B
:10137000910581F014C0EAE3F0E08B81808311C015
:10138000E7E3F0E08B8180830CC0E4E3F0E08B8145
:10139000808307C0E1E3F0E08B81808302C081E0BD
:1013A000898389810F900F900F900F900F90CF91AC
:1013B000DF910895DF93CF93CDB7DEB728970FB6AF
:1013C000F894DEBF0FBECDBF8A836B834C83198236
:1013D0008B81883008F0F4C08C81882309F077C0B5
:1013E0008A81282F30E038872F838F81988581303C
:1013F000910559F12F813885223031052CF48F81E8
:101400009885009769F060C02F81388522303105BA
:1014100089F18F8198858330910509F440C054C0CB
:10142000ABE3B0E0EBE3F0E08081482F8B81282F25
:1014300030E081E090E0022E02C0880F991F0A94EC
:10144000E2F7809584238C93BDC0A8E3B0E0E8E385
:10145000F0E08081482F8B81282F30E081E090E000
:10146000022E02C0880F991F0A94E2F78095842308
:101470008C93A8C0A5E3B0E0E5E3F0E08081482FBD
:101480008B81282F30E081E090E0022E02C0880F8F
:10149000991F0A94E2F7809584238C9393C0A2E36A
:1014A000B0E0E2E3F0E08081482F8B81282F30E02C
:1014B00081E090E0022E02C0880F991F0A94E2F7A3
:1014C000809584238C937EC081E089837BC08C814E
:1014D000813009F072C08A81282F30E03E832D834D
:1014E0008D819E818130910549F12D813E8122308F
:1014F00031052CF48D819E81009761F05BC02D81B8
:101500003E812230310571F18D819E8183309105BC
:10151000E9F150C0ABE3B0E0EBE3F0E08081482FAD
:101520008B81282F30E081E090E0022E02C0880FEE
:10153000991F0A94E2F7842B8C9344C0A8E3B0E08F
:10154000E8E3F0E08081482F8B81282F30E081E0B4
:1015500090E0022E02C0880F991F0A94E2F7842BB4
:101560008C9330C0A5E3B0E0E5E3F0E08081482F44
:101570008B81282F30E081E090E0022E02C0880F9E
:10158000991F0A94E2F7842B8C931CC0A2E3B0E06D
:10159000E2E3F0E08081482F8B81282F30E081E06A
:1015A00090E0022E02C0880F991F0A94E2F7842B64
:1015B0008C9308C081E0898305C081E0898302C0E3
:1015C00081E08983898128960FB6F894DEBF0FBE2B
:1015D000CDBFCF91DF910895DF93CF9300D000D09E
:1015E0000F92CDB7DEB78A836B8319828A81282F49
:1015F00030E03D832C838C819D8181309105D1F039
:101600002C813D81223031052CF48C819D81009705
:1016100061F01FC02C813D812230310581F08C8129
:101620009D818330910581F014C0EBE3F0E08B8164
:10163000808311C0E8E3F0E08B8180830CC0E5E398
:10164000F0E08B81808307C0E2E3F0E08B81808350
:1016500002C081E0898389810F900F900F900F90D5
:101660000F90CF91DF910895DF93CF93CDB7DEB781
:1016700027970FB6F894DEBF0FBECDBF8A836B836A
:101680005D834C8319828C819D81009709F490C001
:101690008B81883008F08CC08A81282F30E03F830E
:1016A0002E834E815F814130510589F18E819F816A
:1016B0008230910534F42E813F812115310569F086
:1016C00074C04E815F8142305105D9F18E819F8176
:1016D0008330910509F44FC068C0ABE3B0E0E9E3A3
:1016E000F0E08081282F30E08B81882F90E0A901E5
:1016F00002C0559547958A95E2F7CA018170EC8141
:10170000FD818083EC81FD8180818C9353C0A8E3AF
:10171000B0E0E6E3F0E08081282F30E08B81882F75
:1017200090E0A90102C0559547958A95E2F7CA0154
:101730008170EC81FD818083EC81FD8180818C93BF
:1017400039C0A5E3B0E0E3E3F0E08081282F30E08A
:101750008B81882F90E0A90102C0559547958A9505
:10176000E2F7CA018170EC81FD818083EC81FD810B
:1017700080818C931FC0A2E3B0E0E0E3F0E08081C1
:10178000282F30E08B81882F90E0A90102C0559569
:1017900047958A95E2F7CA018170EC81FD818083CB
:1017A000EC81FD8180818C9305C081E0898302C03A
:1017B00081E08983898127960FB6F894DEBF0FBE3A
:1017C000CDBFCF91DF910895DF93CF93CDB7DEB733
:1017D00080E060E041E00E94800880E061E041E05C
:1017E0000E948008CF91DF910895DF93CF93CDB70A
:1017F000DEB780E060E041E00E94DA0980E061E06D
:1018000040E00E94DA09CF91DF910895DF93CF93F2
:10181000CDB7DEB780E060E040E00E94DA0980E00A
:1018200061E041E00E94DA09CF91DF910895DF93F2
:10183000CF93CDB7DEB780E060E040E00E94DA09E8
:1018400080E061E040E00E94DA09CF91DF910895E5
:10185000DF93CF93CDB7DEB780E062E041E00E9436
:10186000800880E063E041E00E948008CF91DF9132
:101870000895DF93CF93CDB7DEB780E062E041E01B
:101880000E94DA0980E063E040E00E94DA09CF912B
:10189000DF910895DF93CF93CDB7DEB780E062E0AC
:1018A00040E00E94DA0980E063E041E00E94DA094A
:1018B000CF91DF910895DF93CF93CDB7DEB780E06E
:1018C00062E040E00E94DA0980E063E040E00E94CC
:1018D000DA09CF91DF9108950F931F93DF93CF9390
:1018E000CDB7DEB7C057D0400FB6F894DEBF0FBEFD
:1018F000CDBF83E062E040E00E94800883E062E0C8
:1019000041E00E94DA0983E063E040E00E94800841
:1019100083E063E041E00E94DA090E94A3050E948F
:10192000BF050E94DB0585E291E10E9493078FE2EB
:1019300091E10E94AF070E94390CFE01E359FF4F6D
:1019400080E090E4ACE1B6E480839183A283B3832A
:101950008E0107591F4FFE01E359FF4F60817181CE
:101960008281938120E030E04AEF54E40E941F021C
:10197000DC01CB01F80180839183A283B383FE0154
:10198000E759FF4F608171818281938120E030E0CF
:1019900040E85FE30E947903882344F4FE01E9599B
:1019A000FF4F81E090E09183808364C0FE01E7599E
:1019B000FF4F608171818281938120E03FEF4FE78B
:1019C00057E40E94190318160CF043C0FE01E359B6
:1019D000FF4F608171818281938120E030E040E29D
:1019E00051E40E941F02DC01CB018E0109591F4FF7
:1019F000BC01CD010E944900DC01CB01F8019183BB
:101A000080831FC0FE01EB59FF4F88EC90E091836B
:101A10008083FE01EB59FF4F808191810197F1F79F
:101A2000FE01EB59FF4F91838083DE01A959BF4F1F
:101A3000FE01E959FF4F80819181019711969C9396
:101A40008E93FE01E959FF4F808191810097D1F675
:101A500027C08E0109591F4FFE01E759FF4F6081D2
:101A60007181828193810E944900DC01CB01F801E0
:101A700091838083DE01AD59BF4FFE01E959FF4FCD
:101A8000808191818D939C93FE01ED59FF4F808160
:101A900091810197F1F7FE01ED59FF4F918380830A
:101AA0000E94F50BFE01E15AFF4F80E090E4ACE9A3
:101AB000B5E480839183A283B3838E01055A1F4FBF
:101AC000FE01E15AFF4F608171818281938120E0A4
:101AD00030E04AEF54E40E941F02DC01CB01F80120
:101AE00080839183A283B383FE01E55AFF4F608117
:101AF00071818281938120E030E040E85FE30E94C1
:101B00007903882344F4FE01E75AFF4F81E090E017
:101B10009183808364C0FE01E55AFF4F608171812B
:101B20008281938120E03FEF4FE757E40E94190341
:101B300018160CF043C0FE01E15AFF4F608171811D
:101B40008281938120E030E040E251E40E941F0254
:101B5000DC01CB018E01075A1F4FBC01CD010E9451
:101B60004900DC01CB01F801918380831FC0FE0195
:101B7000E95AFF4F88EC90E091838083FE01E95A97
:101B8000FF4F808191810197F1F7FE01E95AFF4FE4
:101B900091838083DE01A75ABF4FFE01E75AFF4FB2
:101BA00080819181019711969C938E93FE01E75A53
:101BB000FF4F808191810097D1F627C08E01075A8F
:101BC0001F4FFE01E55AFF4F608171818281938131
:101BD0000E944900DC01CB01F80191838083DE0182
:101BE000AB5ABF4FFE01E75AFF4F808191818D9321
:101BF0009C93FE01EB5AFF4F808191810197F1F791
:101C0000FE01EB5AFF4F918380830E944A0CFE0134
:101C1000EF5AFF4F80E090E4ACE1B6E4808391831B
:101C2000A283B3838E01035B1F4FFE01EF5AFF4F68
:101C3000608171818281938120E030E04AEF54E439
:101C40000E941F02DC01CB01F80180839183A283F3
:101C5000B383FE01E35BFF4F6081718182819381D9
:101C600020E030E040E85FE30E947903882344F4F9
:101C7000FE01E55BFF4F81E090E09183808364C0CB
:101C8000FE01E35BFF4F608171818281938120E0DF
:101C90003FEF4FE757E40E94190318160CF043C0BA
:101CA000FE01EF5AFF4F608171818281938120E0B4
:101CB00030E040E251E40E941F02DC01CB018E01C2
:101CC000055B1F4FBC01CD010E944900DC01CB0127
:101CD000F801918380831FC0FE01E75BFF4F88EC12
:101CE00090E091838083FE01E75BFF4F80819181CB
:101CF0000197F1F7FE01E75BFF4F91838083DE01DF
:101D0000A55BBF4FFE01E55BFF4F8081918101978D
:101D100011969C938E93FE01E55BFF4F808191812C
:101D20000097D1F628C08E01055B1F4FFE01E35BD3
:101D3000FF4F60817181828193810E944900DC01A3
:101D4000CB01F80191838083DE01A95BBF4FFE01C7
:101D5000E55BFF4F8081918111969C938E93FE01EC
:101D6000E95BFF4F808191810197F1F7FE01E95B0B
:101D7000FF4F9183808380916E00813009F06EC1A6
:101D8000FE01ED5BFF4F80E090E0AAE7B4E48083C2
:101D90009183A283B3838E01015C1F4FFE01ED5B33
:101DA000FF4F608171818281938120E030E04AEFB2
:101DB00054E40E941F02DC01CB01F801808391836F
:101DC000A283B383FE01FF9660817181828193813A
:101DD00020E030E040E85FE30E94790388232CF4A0
:101DE00081E090E09EAF8DAF46C0FE01FF9660811E
:101DF00071818281938120E03FEF4FE757E40E9499
:101E00001903181664F5FE01ED5BFF4F60817181C7
:101E10008281938120E030E040E251E40E941F0281
:101E2000DC01CB01BC01CD010E944900DC01CB01EA
:101E30009EAF8DAF0FC088EC90E09CAF8BAF8BADA9
:101E40009CAD0197F1F79CAF8BAF8DAD9EAD019727
:101E50009EAF8DAF8DAD9EAD009769F716C0FE01A8
:101E6000FF9660817181828193810E944900DC012B
:101E7000CB019EAF8DAF8DAD9EAD9AAF89AF89ADD1
:101E80009AAD0197F1F79AAF89AF0E944A0C80E0B2
:101E900090E4ACE1B6E48DAB9EABAFABB8AF6DA94F
:101EA0007EA98FA998AD20E030E04AEF54E40E946B
:101EB0001F02DC01CB0189AB9AABABABBCAB69A910
:101EC0007AA98BA99CA920E030E040E85FE30E945A
:101ED000790388232CF481E090E098AB8FA73FC072
:101EE00069A97AA98BA99CA920E03FEF4FE757E4A5
:101EF0000E94190318164CF56DA97EA98FA998ADFB
:101F000020E030E040E251E40E941F02DC01CB01FE
:101F1000BC01CD010E944900DC01CB0198AB8FA729
:101F20000FC088EC90E09EA78DA78DA59EA5019778
:101F3000F1F79EA78DA78FA598A9019798AB8FA7BA
:101F40008FA598A9009769F714C069A97AA98BA9E8
:101F50009CA90E944900DC01CB0198AB8FA78FA5FB
:101F600098A99CA78BA78BA59CA50197F1F79CA787
:101F70008BA70E94060C80E090E4ACE9B5E48FA347
:101F800098A7A9A7BAA76FA178A589A59AA520E0C7
:101F900030E04AEF54E40E941F02DC01CB018BA326
:101FA0009CA3ADA3BEA36BA17CA18DA19EA120E0AB
:101FB00030E040E85FE30E94790388232CF481E05D
:101FC00090E09AA389A33FC06BA17CA18DA19EA1A3
:101FD00020E03FEF4FE757E40E94190318164CF535
:101FE0006FA178A589A59AA520E030E040E251E4F0
:101FF0000E941F02DC01CB01BC01CD010E944900FF
:10200000DC01CB019AA389A30FC088EC90E098A3D0
:102010008F8F8F8D98A10197F1F798A38F8F89A14A
:102020009AA101979AA389A389A19AA1009769F718
:1020300000C16BA17CA18DA19EA10E944900DC0181
:10204000CB019AA389A389A19AA19E8F8D8F8D8D93
:102050009E8D0197F1F79E8F8D8FEBC080916F0061
:10206000813009F068CC80E090E0AAE7B4E4898F81
:102070009A8FAB8FBC8F698D7A8D8B8D9C8D20E074
:1020800030E04AEF54E40E941F02DC01CB018D8B4B
:102090009E8BAF8BB88F6D897E898F89988D20E05C
:1020A00030E040E85FE30E94790388232CF481E06C
:1020B00090E09C8B8B8B3FC06D897E898F89988D3A
:1020C00020E03FEF4FE757E40E94190318164CF544
:1020D000698D7A8D8B8D9C8D20E030E040E251E45B
:1020E0000E941F02DC01CB01BC01CD010E9449000E
:1020F000DC01CB019C8B8B8B0FC088EC90E09A8B22
:10210000898B89899A890197F1F79A8B898B8B89B9
:102110009C8901979C8B8B8B8B899C89009769F795
:1021200014C06D897E898F89988D0E944900DC01D9
:10213000CB019C8B8B8B8B899C89988B8F878F8510
:1021400098890197F1F7988B8F870E94060C80E0A1
:1021500090E4ACE9B5E48B879C87AD87BE876B853F
:102160007C858D859E8520E030E04AEF54E40E9416
:102170001F02DC01CB018F839887A987BA876F8103
:10218000788589859A8520E030E040E85FE30E9409
:10219000790388232CF481E090E09E838D833FC0F7
:1021A0006F81788589859A8520E03FEF4FE757E476
:1021B0000E94190318164CF56B857C858D859E85CC
:1021C00020E030E040E251E40E941F02DC01CB013C
:1021D000BC01CD010E944900DC01CB019E838D83AF
:1021E0000FC088EC90E09C838B838B819C8101974E
:1021F000F1F79C838B838D819E8101979E838D83D4
:102200008D819E81009769F714C06F8178858985DB
:102210009A850E944900DC01CB019E838D838D81CC
:102220009E819A83898389819A810197F1F79A83A4
:102230008983C059DF4F0FB6F894DEBF0FBECDBF04
:10224000CF91DF911F910F910895DF93CF93CDB779
:10225000DEB781E080936E00CF91DF910895DF9328
:10226000CF93CDB7DEB781E080936F00CF91DF9140
:1022700008952F923F924F925F926F927F928F922A
:102280009F92AF92BF92CF92DF92EF92FF920F9305
:102290001F93CF93DF93CDB7DEB7CA1BDB0B0FB60F
:1022A000F894DEBF0FBECDBF09942A8839884888CC
:1022B0005F846E847D848C849B84AA84B984C88462
:1022C000DF80EE80FD800C811B81AA81B981CE0F59
:1022D000D11D0FB6F894DEBF0FBECDBFED0108953E
:0422E000F894FFCFA0
:0822E4000000000000000000F2
:00000001FF
